{
  "contractName": "SneakerFactory",
  "abi": [
    {
      "anonymous": false,
      "inputs": [
        {
          "indexed": false,
          "internalType": "uint256",
          "name": "identifier",
          "type": "uint256"
        },
        {
          "indexed": false,
          "internalType": "enum ISneakerData.ShoeType",
          "name": "shoeType",
          "type": "uint8"
        },
        {
          "indexed": false,
          "internalType": "enum ISneakerData.Rarity",
          "name": "rarity",
          "type": "uint8"
        }
      ],
      "name": "NewSneaker",
      "type": "event"
    },
    {
      "anonymous": false,
      "inputs": [
        {
          "indexed": true,
          "internalType": "address",
          "name": "previousOwner",
          "type": "address"
        },
        {
          "indexed": true,
          "internalType": "address",
          "name": "newOwner",
          "type": "address"
        }
      ],
      "name": "OwnershipTransferred",
      "type": "event"
    },
    {
      "inputs": [],
      "name": "owner",
      "outputs": [
        {
          "internalType": "address",
          "name": "",
          "type": "address"
        }
      ],
      "stateMutability": "view",
      "type": "function",
      "constant": true
    },
    {
      "inputs": [],
      "name": "renounceOwnership",
      "outputs": [],
      "stateMutability": "nonpayable",
      "type": "function"
    },
    {
      "inputs": [
        {
          "internalType": "uint256",
          "name": "",
          "type": "uint256"
        }
      ],
      "name": "sneakerToOwner",
      "outputs": [
        {
          "internalType": "address",
          "name": "",
          "type": "address"
        }
      ],
      "stateMutability": "view",
      "type": "function",
      "constant": true
    },
    {
      "inputs": [
        {
          "internalType": "address",
          "name": "newOwner",
          "type": "address"
        }
      ],
      "name": "transferOwnership",
      "outputs": [],
      "stateMutability": "nonpayable",
      "type": "function"
    },
    {
      "inputs": [
        {
          "internalType": "string",
          "name": "_name",
          "type": "string"
        },
        {
          "internalType": "enum ISneakerData.ShoeType",
          "name": "_shoeType",
          "type": "uint8"
        },
        {
          "internalType": "enum ISneakerData.Rarity",
          "name": "_rarity",
          "type": "uint8"
        }
      ],
      "name": "createSneaker",
      "outputs": [],
      "stateMutability": "payable",
      "type": "function",
      "payable": true
    },
    {
      "inputs": [],
      "name": "getSneakers",
      "outputs": [
        {
          "components": [
            {
              "internalType": "uint256",
              "name": "identifier",
              "type": "uint256"
            },
            {
              "internalType": "enum ISneakerData.ShoeType",
              "name": "shoeType",
              "type": "uint8"
            },
            {
              "internalType": "enum ISneakerData.Rarity",
              "name": "rarity",
              "type": "uint8"
            },
            {
              "internalType": "uint8",
              "name": "level",
              "type": "uint8"
            },
            {
              "internalType": "uint8",
              "name": "durability",
              "type": "uint8"
            },
            {
              "internalType": "bool",
              "name": "putOn",
              "type": "bool"
            },
            {
              "internalType": "uint32",
              "name": "baseEfficiency",
              "type": "uint32"
            },
            {
              "internalType": "uint32",
              "name": "baseLuck",
              "type": "uint32"
            },
            {
              "internalType": "uint32",
              "name": "baseComfort",
              "type": "uint32"
            },
            {
              "internalType": "uint32",
              "name": "baseResiliense",
              "type": "uint32"
            },
            {
              "internalType": "uint32",
              "name": "pointNum",
              "type": "uint32"
            }
          ],
          "internalType": "struct ISneakerData.Sneaker[]",
          "name": "",
          "type": "tuple[]"
        }
      ],
      "stateMutability": "view",
      "type": "function",
      "constant": true
    },
    {
      "inputs": [],
      "name": "getOwnerToSneakers",
      "outputs": [
        {
          "components": [
            {
              "internalType": "uint256",
              "name": "identifier",
              "type": "uint256"
            },
            {
              "internalType": "enum ISneakerData.ShoeType",
              "name": "shoeType",
              "type": "uint8"
            },
            {
              "internalType": "enum ISneakerData.Rarity",
              "name": "rarity",
              "type": "uint8"
            },
            {
              "internalType": "uint8",
              "name": "level",
              "type": "uint8"
            },
            {
              "internalType": "uint8",
              "name": "durability",
              "type": "uint8"
            },
            {
              "internalType": "bool",
              "name": "putOn",
              "type": "bool"
            },
            {
              "internalType": "uint32",
              "name": "baseEfficiency",
              "type": "uint32"
            },
            {
              "internalType": "uint32",
              "name": "baseLuck",
              "type": "uint32"
            },
            {
              "internalType": "uint32",
              "name": "baseComfort",
              "type": "uint32"
            },
            {
              "internalType": "uint32",
              "name": "baseResiliense",
              "type": "uint32"
            },
            {
              "internalType": "uint32",
              "name": "pointNum",
              "type": "uint32"
            }
          ],
          "internalType": "struct ISneakerData.Sneaker[]",
          "name": "",
          "type": "tuple[]"
        }
      ],
      "stateMutability": "view",
      "type": "function",
      "constant": true
    }
  ],
  "bytecode": "0x6080604052600060015534801561001557600080fd5b5061003261002761003760201b60201c565b61003f60201b60201c565b610103565b600033905090565b60008060009054906101000a900473ffffffffffffffffffffffffffffffffffffffff169050816000806101000a81548173ffffffffffffffffffffffffffffffffffffffff021916908373ffffffffffffffffffffffffffffffffffffffff1602179055508173ffffffffffffffffffffffffffffffffffffffff168173ffffffffffffffffffffffffffffffffffffffff167f8be0079c531659141344cd1fd0a4f28419497f9722a3daafe3b4186f6b6457e060405160405180910390a35050565b611bda806101126000396000f3fe6080604052600436106100705760003560e01c80638da5cb5b1161004e5780638da5cb5b146100f45780638fa6782a1461011f578063e2037bc81461014a578063f2fde38b1461016657610070565b806302f92b5b146100755780636ad35482146100a0578063715018a6146100dd575b600080fd5b34801561008157600080fd5b5061008a61018f565b604051610097919061144e565b60405180910390f35b3480156100ac57600080fd5b506100c760048036038101906100c291906114b0565b61043b565b6040516100d4919061151e565b60405180910390f35b3480156100e957600080fd5b506100f261046e565b005b34801561010057600080fd5b506101096104f6565b604051610116919061151e565b60405180910390f35b34801561012b57600080fd5b5061013461051f565b604051610141919061144e565b60405180910390f35b610164600480360381019061015f91906116c9565b61078e565b005b34801561017257600080fd5b5061018d60048036038101906101889190611764565b6108f0565b005b60606101996109e7565b73ffffffffffffffffffffffffffffffffffffffff166101b76104f6565b73ffffffffffffffffffffffffffffffffffffffff161461020d576040517f08c379a0000000000000000000000000000000000000000000000000000000008152600401610204906117ee565b60405180910390fd5b600460003373ffffffffffffffffffffffffffffffffffffffff1673ffffffffffffffffffffffffffffffffffffffff168152602001908152602001600020805480602002602001604051908101604052809291908181526020016000905b82821015610432578382906000526020600020906002020160405180610160016040529081600082015481526020016001820160009054906101000a900460ff1660038111156102bf576102be6111d4565b5b60038111156102d1576102d06111d4565b5b81526020016001820160019054906101000a900460ff1660038111156102fa576102f96111d4565b5b600381111561030c5761030b6111d4565b5b81526020016001820160029054906101000a900460ff1660ff1660ff1681526020016001820160039054906101000a900460ff1660ff1660ff1681526020016001820160049054906101000a900460ff161515151581526020016001820160059054906101000a900463ffffffff1663ffffffff1663ffffffff1681526020016001820160099054906101000a900463ffffffff1663ffffffff1663ffffffff16815260200160018201600d9054906101000a900463ffffffff1663ffffffff1663ffffffff1681526020016001820160119054906101000a900463ffffffff1663ffffffff1663ffffffff1681526020016001820160159054906101000a900463ffffffff1663ffffffff1663ffffffff16815250508152602001906001019061026c565b50505050905090565b60036020528060005260406000206000915054906101000a900473ffffffffffffffffffffffffffffffffffffffff1681565b6104766109e7565b73ffffffffffffffffffffffffffffffffffffffff166104946104f6565b73ffffffffffffffffffffffffffffffffffffffff16146104ea576040517f08c379a00000000000000000000000000000000000000000000000000000000081526004016104e1906117ee565b60405180910390fd5b6104f460006109ef565b565b60008060009054906101000a900473ffffffffffffffffffffffffffffffffffffffff16905090565b60606105296109e7565b73ffffffffffffffffffffffffffffffffffffffff166105476104f6565b73ffffffffffffffffffffffffffffffffffffffff161461059d576040517f08c379a0000000000000000000000000000000000000000000000000000000008152600401610594906117ee565b60405180910390fd5b6002805480602002602001604051908101604052809291908181526020016000905b82821015610785578382906000526020600020906002020160405180610160016040529081600082015481526020016001820160009054906101000a900460ff166003811115610612576106116111d4565b5b6003811115610624576106236111d4565b5b81526020016001820160019054906101000a900460ff16600381111561064d5761064c6111d4565b5b600381111561065f5761065e6111d4565b5b81526020016001820160029054906101000a900460ff1660ff1660ff1681526020016001820160039054906101000a900460ff1660ff1660ff1681526020016001820160049054906101000a900460ff161515151581526020016001820160059054906101000a900463ffffffff1663ffffffff1663ffffffff1681526020016001820160099054906101000a900463ffffffff1663ffffffff1663ffffffff16815260200160018201600d9054906101000a900463ffffffff1663ffffffff1663ffffffff1681526020016001820160119054906101000a900463ffffffff1663ffffffff1663ffffffff1681526020016001820160159054906101000a900463ffffffff1663ffffffff1663ffffffff1681525050815260200190600101906105bf565b50505050905090565b6107966109e7565b73ffffffffffffffffffffffffffffffffffffffff166107b46104f6565b73ffffffffffffffffffffffffffffffffffffffff161461080a576040517f08c379a0000000000000000000000000000000000000000000000000000000008152600401610801906117ee565b60405180910390fd5b816000600381111561081f5761081e6111d4565b5b816003811115610832576108316111d4565b5b10158015610864575080600381111561084e5761084d6111d4565b5b600380811115610861576108606111d4565b5b10155b61086d57600080fd5b8160006003811115610882576108816111d4565b5b816003811115610895576108946111d4565b5b101580156108c757508060038111156108b1576108b06111d4565b5b6003808111156108c4576108c36111d4565b5b10155b6108d057600080fd5b60006108db86610ab3565b90506108e8818686610afd565b505050505050565b6108f86109e7565b73ffffffffffffffffffffffffffffffffffffffff166109166104f6565b73ffffffffffffffffffffffffffffffffffffffff161461096c576040517f08c379a0000000000000000000000000000000000000000000000000000000008152600401610963906117ee565b60405180910390fd5b600073ffffffffffffffffffffffffffffffffffffffff168173ffffffffffffffffffffffffffffffffffffffff16036109db576040517f08c379a00000000000000000000000000000000000000000000000000000000081526004016109d290611880565b60405180910390fd5b6109e4816109ef565b50565b600033905090565b60008060009054906101000a900473ffffffffffffffffffffffffffffffffffffffff169050816000806101000a81548173ffffffffffffffffffffffffffffffffffffffff021916908373ffffffffffffffffffffffffffffffffffffffff1602179055508173ffffffffffffffffffffffffffffffffffffffff168173ffffffffffffffffffffffffffffffffffffffff167f8be0079c531659141344cd1fd0a4f28419497f9722a3daafe3b4186f6b6457e060405160405180910390a35050565b60008082604051602001610ac79190611917565b6040516020818303038152906040528051906020012060001c9050662386f26fc1000081610af59190611968565b915050919050565b6000604051806101600160405280858152602001846003811115610b2457610b236111d4565b5b8152602001836003811115610b3c57610b3b6111d4565b5b8152602001600060ff168152602001606460ff168152602001600115158152602001610b678461100b565b63ffffffff168152602001610b7b8461100b565b63ffffffff168152602001610b8f8461100b565b63ffffffff168152602001610ba38461100b565b63ffffffff168152602001600063ffffffff16815250905060028190806001815401808255809150506001900390600052602060002090600202016000909190919091506000820151816000015560208201518160010160006101000a81548160ff02191690836003811115610c1c57610c1b6111d4565b5b021790555060408201518160010160016101000a81548160ff02191690836003811115610c4c57610c4b6111d4565b5b021790555060608201518160010160026101000a81548160ff021916908360ff16021790555060808201518160010160036101000a81548160ff021916908360ff16021790555060a08201518160010160046101000a81548160ff02191690831515021790555060c08201518160010160056101000a81548163ffffffff021916908363ffffffff16021790555060e08201518160010160096101000a81548163ffffffff021916908363ffffffff16021790555061010082015181600101600d6101000a81548163ffffffff021916908363ffffffff1602179055506101208201518160010160116101000a81548163ffffffff021916908363ffffffff1602179055506101408201518160010160156101000a81548163ffffffff021916908363ffffffff1602179055505050600460003373ffffffffffffffffffffffffffffffffffffffff1673ffffffffffffffffffffffffffffffffffffffff1681526020019081526020016000208190806001815401808255809150506001900390600052602060002090600202016000909190919091506000820151816000015560208201518160010160006101000a81548160ff02191690836003811115610e1957610e186111d4565b5b021790555060408201518160010160016101000a81548160ff02191690836003811115610e4957610e486111d4565b5b021790555060608201518160010160026101000a81548160ff021916908360ff16021790555060808201518160010160036101000a81548160ff021916908360ff16021790555060a08201518160010160046101000a81548160ff02191690831515021790555060c08201518160010160056101000a81548163ffffffff021916908363ffffffff16021790555060e08201518160010160096101000a81548163ffffffff021916908363ffffffff16021790555061010082015181600101600d6101000a81548163ffffffff021916908363ffffffff1602179055506101208201518160010160116101000a81548163ffffffff021916908363ffffffff1602179055506101408201518160010160156101000a81548163ffffffff021916908363ffffffff1602179055505050336003600086815260200190815260200160002060006101000a81548173ffffffffffffffffffffffffffffffffffffffff021916908373ffffffffffffffffffffffffffffffffffffffff1602179055507f6a8c59da79afe08e9e21105b96ace9e15b03412ae0b524de35e6aaf93985f3a4848484604051610ffd939291906119c6565b60405180910390a150505050565b60008060038111156110205761101f6111d4565b5b826003811115611033576110326111d4565b5b0361104b57611044600a6001611111565b905061110c565b6001600381111561105f5761105e6111d4565b5b826003811115611072576110716111d4565b5b0361108a5761108360126008611111565b905061110c565b6002600381111561109e5761109d6111d4565b5b8260038111156110b1576110b06111d4565b5b036110c9576110c26023600f611111565b905061110c565b6003808111156110dc576110db6111d4565b5b8260038111156110ef576110ee6111d4565b5b0361110757611100603f601c611111565b905061110c565b600090505b919050565b600080423360015460405160200161112b93929190611a66565b6040516020818303038152906040528051906020012060001c90506001600081548092919061115990611ad2565b91905055508260ff16838561116e9190611b1a565b60ff168261117c9190611968565b6111869190611b4e565b91505092915050565b600081519050919050565b600082825260208201905092915050565b6000819050602082019050919050565b6000819050919050565b6111ce816111bb565b82525050565b7f4e487b7100000000000000000000000000000000000000000000000000000000600052602160045260246000fd5b60048110611214576112136111d4565b5b50565b600081905061122582611203565b919050565b600061123582611217565b9050919050565b6112458161122a565b82525050565b6004811061125c5761125b6111d4565b5b50565b600081905061126d8261124b565b919050565b600061127d8261125f565b9050919050565b61128d81611272565b82525050565b600060ff82169050919050565b6112a981611293565b82525050565b60008115159050919050565b6112c4816112af565b82525050565b600063ffffffff82169050919050565b6112e3816112ca565b82525050565b6101608201600082015161130060008501826111c5565b506020820151611313602085018261123c565b5060408201516113266040850182611284565b50606082015161133960608501826112a0565b50608082015161134c60808501826112a0565b5060a082015161135f60a08501826112bb565b5060c082015161137260c08501826112da565b5060e082015161138560e08501826112da565b5061010082015161139a6101008501826112da565b506101208201516113af6101208501826112da565b506101408201516113c46101408501826112da565b50505050565b60006113d683836112e9565b6101608301905092915050565b6000602082019050919050565b60006113fb8261118f565b611405818561119a565b9350611410836111ab565b8060005b8381101561144157815161142888826113ca565b9750611433836113e3565b925050600181019050611414565b5085935050505092915050565b6000602082019050818103600083015261146881846113f0565b905092915050565b6000604051905090565b600080fd5b600080fd5b61148d816111bb565b811461149857600080fd5b50565b6000813590506114aa81611484565b92915050565b6000602082840312156114c6576114c561147a565b5b60006114d48482850161149b565b91505092915050565b600073ffffffffffffffffffffffffffffffffffffffff82169050919050565b6000611508826114dd565b9050919050565b611518816114fd565b82525050565b6000602082019050611533600083018461150f565b92915050565b600080fd5b600080fd5b6000601f19601f8301169050919050565b7f4e487b7100000000000000000000000000000000000000000000000000000000600052604160045260246000fd5b61158c82611543565b810181811067ffffffffffffffff821117156115ab576115aa611554565b5b80604052505050565b60006115be611470565b90506115ca8282611583565b919050565b600067ffffffffffffffff8211156115ea576115e9611554565b5b6115f382611543565b9050602081019050919050565b82818337600083830152505050565b600061162261161d846115cf565b6115b4565b90508281526020810184848401111561163e5761163d61153e565b5b611649848285611600565b509392505050565b600082601f83011261166657611665611539565b5b813561167684826020860161160f565b91505092915050565b6004811061168c57600080fd5b50565b60008135905061169e8161167f565b92915050565b600481106116b157600080fd5b50565b6000813590506116c3816116a4565b92915050565b6000806000606084860312156116e2576116e161147a565b5b600084013567ffffffffffffffff811115611700576116ff61147f565b5b61170c86828701611651565b935050602061171d8682870161168f565b925050604061172e868287016116b4565b9150509250925092565b611741816114fd565b811461174c57600080fd5b50565b60008135905061175e81611738565b92915050565b60006020828403121561177a5761177961147a565b5b60006117888482850161174f565b91505092915050565b600082825260208201905092915050565b7f4f776e61626c653a2063616c6c6572206973206e6f7420746865206f776e6572600082015250565b60006117d8602083611791565b91506117e3826117a2565b602082019050919050565b60006020820190508181036000830152611807816117cb565b9050919050565b7f4f776e61626c653a206e6577206f776e657220697320746865207a65726f206160008201527f6464726573730000000000000000000000000000000000000000000000000000602082015250565b600061186a602683611791565b91506118758261180e565b604082019050919050565b600060208201905081810360008301526118998161185d565b9050919050565b600081519050919050565b60005b838110156118c95780820151818401526020810190506118ae565b838111156118d8576000848401525b50505050565b60006118e9826118a0565b6118f38185611791565b93506119038185602086016118ab565b61190c81611543565b840191505092915050565b6000602082019050818103600083015261193181846118de565b905092915050565b7f4e487b7100000000000000000000000000000000000000000000000000000000600052601260045260246000fd5b6000611973826111bb565b915061197e836111bb565b92508261198e5761198d611939565b5b828206905092915050565b6119a2816111bb565b82525050565b6119b18161122a565b82525050565b6119c081611272565b82525050565b60006060820190506119db6000830186611999565b6119e860208301856119a8565b6119f560408301846119b7565b949350505050565b6000819050919050565b611a18611a13826111bb565b6119fd565b82525050565b60008160601b9050919050565b6000611a3682611a1e565b9050919050565b6000611a4882611a2b565b9050919050565b611a60611a5b826114fd565b611a3d565b82525050565b6000611a728286611a07565b602082019150611a828285611a4f565b601482019150611a928284611a07565b602082019150819050949350505050565b7f4e487b7100000000000000000000000000000000000000000000000000000000600052601160045260246000fd5b6000611add826111bb565b91507fffffffffffffffffffffffffffffffffffffffffffffffffffffffffffffffff8203611b0f57611b0e611aa3565b5b600182019050919050565b6000611b2582611293565b9150611b3083611293565b925082821015611b4357611b42611aa3565b5b828203905092915050565b6000611b59826111bb565b9150611b64836111bb565b9250827fffffffffffffffffffffffffffffffffffffffffffffffffffffffffffffffff03821115611b9957611b98611aa3565b5b82820190509291505056fea2646970667358221220e50e34176c0facbae9d962bcd3793e311a447a82e24514e15ab1735bbd99dd8d64736f6c634300080e0033",
  "immutableReferences": {},
  "source": "// SPDX-License-Identifier: UNLICENSED\npragma solidity ^0.8.14;\n\nimport \"@openzeppelin/contracts/access/Ownable.sol\";\nimport { ISneakerData } from \"./interface/ISneakerData.sol\";\nimport { GenerateRandom } from \"./utility/GenerateRandom.sol\";\n\ncontract SneakerFactory is Ownable, GenerateRandom {\n\n  event NewSneaker(uint identifier, ISneakerData.ShoeType shoeType, ISneakerData.Rarity rarity);\n\n  modifier validateShoeType(ISneakerData.ShoeType _shoeType) {\n    require(\n      uint(_shoeType) >= uint(ISneakerData.ShoeType.WAKER) &&\n      uint(ISneakerData.ShoeType.TRAINER) >= uint(_shoeType)\n    );\n    _;\n  }\n\n  modifier validateRarity(ISneakerData.Rarity _rarity) {\n    require(\n      uint(_rarity) >= uint(ISneakerData.Rarity.COMMON) &&\n      uint(ISneakerData.Rarity.EPIC) >= uint(_rarity)\n    );\n    _;\n  }\n\n  ISneakerData.Sneaker[] private _sneakers;\n\n  mapping (uint => address) public sneakerToOwner;\n  mapping (address => ISneakerData.Sneaker[]) private _ownerToSneakers;\n\n  function _createSneaker(\n    uint _identifier,\n    ISneakerData.ShoeType _shoeType,\n    ISneakerData.Rarity _rarity\n  )\n    private\n  {\n    ISneakerData.Sneaker memory _newSneaker = ISneakerData.Sneaker(\n      _identifier,\n      _shoeType,\n      _rarity,\n      0,\n      100,\n      true,\n      _generateStatusBasedOnRarity(_rarity),\n      _generateStatusBasedOnRarity(_rarity),\n      _generateStatusBasedOnRarity(_rarity),\n      _generateStatusBasedOnRarity(_rarity),\n      0\n    );\n    _sneakers.push(_newSneaker);\n    _ownerToSneakers[msg.sender].push(_newSneaker);\n    sneakerToOwner[_identifier] = msg.sender;\n    emit NewSneaker(_identifier, _shoeType, _rarity);\n  }\n\n  function _generateIdentifier(string memory _str)\n    private\n    pure\n    returns (uint)\n  {\n    uint rand = uint(keccak256(abi.encode(_str)));\n    return rand % (10 ** 16);\n  }\n\n  function _generateStatusBasedOnRarity(ISneakerData.Rarity _rarity)\n    private\n    returns (uint32)\n  {\n    if (_rarity == ISneakerData.Rarity.COMMON) {\n      return GenerateRandom._generateRandomNumber(10, 1);\n    } else if (_rarity == ISneakerData.Rarity.UNCOMMON) {\n      return _generateRandomNumber(18, 8);\n    } else if (_rarity == ISneakerData.Rarity.RARE) {\n      return _generateRandomNumber(35, 15);\n    } else if (_rarity == ISneakerData.Rarity.EPIC) {\n      return _generateRandomNumber(63, 28);\n    }\n    return uint32(0);\n  }\n\n  function createSneaker(\n    string memory _name,\n    ISneakerData.ShoeType _shoeType,\n    ISneakerData.Rarity _rarity\n  )\n    public\n    payable\n    onlyOwner\n    validateShoeType(_shoeType)\n    validateRarity(_rarity)\n  {\n    uint identifier = _generateIdentifier(_name);\n    _createSneaker(identifier, _shoeType, _rarity);\n  }\n\n  function getSneakers()\n    public\n    view\n    onlyOwner\n    returns (ISneakerData.Sneaker[] memory)\n  {\n    return _sneakers;\n  }\n\n  function getOwnerToSneakers()\n    public\n    view\n    onlyOwner\n    returns (ISneakerData.Sneaker[] memory)\n  {\n    return _ownerToSneakers[msg.sender];\n  }\n}",
  "sourcePath": "/Users/takaishouhei/Desktop/stepn_dummy_contract/contracts/SneakerFactory.sol",
  "compiler": {
    "name": "solc",
    "version": "0.8.14+commit.80d49f37.Emscripten.clang"
  },
  "schemaVersion": "3.4.7",
  "updatedAt": "2022-06-11T19:25:02.437Z",
  "networkType": "ethereum",
  "devdoc": {
    "kind": "dev",
    "methods": {
      "owner()": {
        "details": "Returns the address of the current owner."
      },
      "renounceOwnership()": {
        "details": "Leaves the contract without owner. It will not be possible to call `onlyOwner` functions anymore. Can only be called by the current owner. NOTE: Renouncing ownership will leave the contract without an owner, thereby removing any functionality that is only available to the owner."
      },
      "transferOwnership(address)": {
        "details": "Transfers ownership of the contract to a new account (`newOwner`). Can only be called by the current owner."
      }
    },
    "version": 1
  },
  "userdoc": {
    "kind": "user",
    "methods": {},
    "version": 1
  }
}