{
  "contractName": "StepnDummy",
  "abi": [
    {
      "anonymous": false,
      "inputs": [
        {
          "indexed": true,
          "internalType": "address",
          "name": "owner",
          "type": "address"
        },
        {
          "indexed": true,
          "internalType": "address",
          "name": "approved",
          "type": "address"
        },
        {
          "indexed": true,
          "internalType": "uint256",
          "name": "tokenId",
          "type": "uint256"
        }
      ],
      "name": "Approval",
      "type": "event"
    },
    {
      "anonymous": false,
      "inputs": [
        {
          "indexed": true,
          "internalType": "address",
          "name": "owner",
          "type": "address"
        },
        {
          "indexed": true,
          "internalType": "address",
          "name": "operator",
          "type": "address"
        },
        {
          "indexed": false,
          "internalType": "bool",
          "name": "approved",
          "type": "bool"
        }
      ],
      "name": "ApprovalForAll",
      "type": "event"
    },
    {
      "anonymous": false,
      "inputs": [
        {
          "indexed": false,
          "internalType": "uint256",
          "name": "tokenId",
          "type": "uint256"
        },
        {
          "indexed": false,
          "internalType": "enum ISneakerData.ShoeType",
          "name": "shoeType",
          "type": "uint8"
        },
        {
          "indexed": false,
          "internalType": "enum ISneakerData.Rarity",
          "name": "rarity",
          "type": "uint8"
        }
      ],
      "name": "NewSneaker",
      "type": "event"
    },
    {
      "anonymous": false,
      "inputs": [
        {
          "indexed": false,
          "internalType": "uint256",
          "name": "userId",
          "type": "uint256"
        }
      ],
      "name": "NewUser",
      "type": "event"
    },
    {
      "anonymous": false,
      "inputs": [
        {
          "indexed": true,
          "internalType": "address",
          "name": "previousOwner",
          "type": "address"
        },
        {
          "indexed": true,
          "internalType": "address",
          "name": "newOwner",
          "type": "address"
        }
      ],
      "name": "OwnershipTransferred",
      "type": "event"
    },
    {
      "anonymous": false,
      "inputs": [
        {
          "indexed": true,
          "internalType": "address",
          "name": "from",
          "type": "address"
        },
        {
          "indexed": true,
          "internalType": "address",
          "name": "to",
          "type": "address"
        },
        {
          "indexed": true,
          "internalType": "uint256",
          "name": "tokenId",
          "type": "uint256"
        }
      ],
      "name": "Transfer",
      "type": "event"
    },
    {
      "inputs": [
        {
          "internalType": "address",
          "name": "to",
          "type": "address"
        },
        {
          "internalType": "uint256",
          "name": "tokenId",
          "type": "uint256"
        }
      ],
      "name": "approve",
      "outputs": [],
      "stateMutability": "nonpayable",
      "type": "function"
    },
    {
      "inputs": [
        {
          "internalType": "address",
          "name": "owner",
          "type": "address"
        }
      ],
      "name": "balanceOf",
      "outputs": [
        {
          "internalType": "uint256",
          "name": "",
          "type": "uint256"
        }
      ],
      "stateMutability": "view",
      "type": "function",
      "constant": true
    },
    {
      "inputs": [
        {
          "internalType": "enum ISneakerData.ShoeType",
          "name": "_shoeType",
          "type": "uint8"
        },
        {
          "internalType": "enum ISneakerData.Rarity",
          "name": "_rarity",
          "type": "uint8"
        }
      ],
      "name": "createSneaker",
      "outputs": [],
      "stateMutability": "payable",
      "type": "function",
      "payable": true
    },
    {
      "inputs": [
        {
          "internalType": "string",
          "name": "_name",
          "type": "string"
        },
        {
          "internalType": "bool",
          "name": "_isMale",
          "type": "bool"
        },
        {
          "internalType": "string",
          "name": "_email",
          "type": "string"
        },
        {
          "internalType": "string",
          "name": "_password",
          "type": "string"
        },
        {
          "internalType": "uint8",
          "name": "_avatorId",
          "type": "uint8"
        }
      ],
      "name": "createUser",
      "outputs": [],
      "stateMutability": "payable",
      "type": "function",
      "payable": true
    },
    {
      "inputs": [
        {
          "internalType": "uint256",
          "name": "tokenId",
          "type": "uint256"
        }
      ],
      "name": "getApproved",
      "outputs": [
        {
          "internalType": "address",
          "name": "",
          "type": "address"
        }
      ],
      "stateMutability": "view",
      "type": "function",
      "constant": true
    },
    {
      "inputs": [
        {
          "internalType": "address",
          "name": "_owner",
          "type": "address"
        }
      ],
      "name": "getOwnerToSneakers",
      "outputs": [
        {
          "components": [
            {
              "internalType": "uint256",
              "name": "tokenId",
              "type": "uint256"
            },
            {
              "internalType": "enum ISneakerData.ShoeType",
              "name": "shoeType",
              "type": "uint8"
            },
            {
              "internalType": "enum ISneakerData.Rarity",
              "name": "rarity",
              "type": "uint8"
            },
            {
              "internalType": "uint8",
              "name": "level",
              "type": "uint8"
            },
            {
              "internalType": "uint8",
              "name": "durability",
              "type": "uint8"
            },
            {
              "internalType": "uint8",
              "name": "mintCount",
              "type": "uint8"
            },
            {
              "internalType": "bool",
              "name": "putOn",
              "type": "bool"
            },
            {
              "internalType": "uint32",
              "name": "baseEfficiency",
              "type": "uint32"
            },
            {
              "internalType": "uint32",
              "name": "baseLuck",
              "type": "uint32"
            },
            {
              "internalType": "uint32",
              "name": "baseComfort",
              "type": "uint32"
            },
            {
              "internalType": "uint32",
              "name": "baseResiliense",
              "type": "uint32"
            },
            {
              "internalType": "uint32",
              "name": "efficiency",
              "type": "uint32"
            },
            {
              "internalType": "uint32",
              "name": "luck",
              "type": "uint32"
            },
            {
              "internalType": "uint32",
              "name": "comfort",
              "type": "uint32"
            },
            {
              "internalType": "uint32",
              "name": "resiliense",
              "type": "uint32"
            },
            {
              "internalType": "uint32",
              "name": "pointNum",
              "type": "uint32"
            },
            {
              "internalType": "bool",
              "name": "minted",
              "type": "bool"
            },
            {
              "internalType": "uint256",
              "name": "mintedFromTokenId1",
              "type": "uint256"
            },
            {
              "internalType": "uint256",
              "name": "mintedFromTokenId2",
              "type": "uint256"
            }
          ],
          "internalType": "struct ISneakerData.Sneaker[]",
          "name": "",
          "type": "tuple[]"
        }
      ],
      "stateMutability": "view",
      "type": "function",
      "constant": true
    },
    {
      "inputs": [],
      "name": "getSneakers",
      "outputs": [
        {
          "components": [
            {
              "internalType": "uint256",
              "name": "tokenId",
              "type": "uint256"
            },
            {
              "internalType": "enum ISneakerData.ShoeType",
              "name": "shoeType",
              "type": "uint8"
            },
            {
              "internalType": "enum ISneakerData.Rarity",
              "name": "rarity",
              "type": "uint8"
            },
            {
              "internalType": "uint8",
              "name": "level",
              "type": "uint8"
            },
            {
              "internalType": "uint8",
              "name": "durability",
              "type": "uint8"
            },
            {
              "internalType": "uint8",
              "name": "mintCount",
              "type": "uint8"
            },
            {
              "internalType": "bool",
              "name": "putOn",
              "type": "bool"
            },
            {
              "internalType": "uint32",
              "name": "baseEfficiency",
              "type": "uint32"
            },
            {
              "internalType": "uint32",
              "name": "baseLuck",
              "type": "uint32"
            },
            {
              "internalType": "uint32",
              "name": "baseComfort",
              "type": "uint32"
            },
            {
              "internalType": "uint32",
              "name": "baseResiliense",
              "type": "uint32"
            },
            {
              "internalType": "uint32",
              "name": "efficiency",
              "type": "uint32"
            },
            {
              "internalType": "uint32",
              "name": "luck",
              "type": "uint32"
            },
            {
              "internalType": "uint32",
              "name": "comfort",
              "type": "uint32"
            },
            {
              "internalType": "uint32",
              "name": "resiliense",
              "type": "uint32"
            },
            {
              "internalType": "uint32",
              "name": "pointNum",
              "type": "uint32"
            },
            {
              "internalType": "bool",
              "name": "minted",
              "type": "bool"
            },
            {
              "internalType": "uint256",
              "name": "mintedFromTokenId1",
              "type": "uint256"
            },
            {
              "internalType": "uint256",
              "name": "mintedFromTokenId2",
              "type": "uint256"
            }
          ],
          "internalType": "struct ISneakerData.Sneaker[]",
          "name": "",
          "type": "tuple[]"
        }
      ],
      "stateMutability": "view",
      "type": "function",
      "constant": true
    },
    {
      "inputs": [
        {
          "internalType": "uint256",
          "name": "_userId",
          "type": "uint256"
        }
      ],
      "name": "getUserMetadata",
      "outputs": [
        {
          "components": [
            {
              "internalType": "uint256",
              "name": "userId",
              "type": "uint256"
            },
            {
              "internalType": "string",
              "name": "name",
              "type": "string"
            },
            {
              "internalType": "bool",
              "name": "isMale",
              "type": "bool"
            },
            {
              "internalType": "string",
              "name": "email",
              "type": "string"
            },
            {
              "internalType": "string",
              "name": "password",
              "type": "string"
            },
            {
              "internalType": "uint8",
              "name": "avatorId",
              "type": "uint8"
            }
          ],
          "internalType": "struct IUserData.User",
          "name": "",
          "type": "tuple"
        }
      ],
      "stateMutability": "view",
      "type": "function",
      "constant": true
    },
    {
      "inputs": [
        {
          "internalType": "address",
          "name": "owner",
          "type": "address"
        },
        {
          "internalType": "address",
          "name": "operator",
          "type": "address"
        }
      ],
      "name": "isApprovedForAll",
      "outputs": [
        {
          "internalType": "bool",
          "name": "",
          "type": "bool"
        }
      ],
      "stateMutability": "view",
      "type": "function",
      "constant": true
    },
    {
      "inputs": [],
      "name": "name",
      "outputs": [
        {
          "internalType": "string",
          "name": "",
          "type": "string"
        }
      ],
      "stateMutability": "view",
      "type": "function",
      "constant": true
    },
    {
      "inputs": [],
      "name": "owner",
      "outputs": [
        {
          "internalType": "address",
          "name": "",
          "type": "address"
        }
      ],
      "stateMutability": "view",
      "type": "function",
      "constant": true
    },
    {
      "inputs": [
        {
          "internalType": "uint256",
          "name": "tokenId",
          "type": "uint256"
        }
      ],
      "name": "ownerOf",
      "outputs": [
        {
          "internalType": "address",
          "name": "",
          "type": "address"
        }
      ],
      "stateMutability": "view",
      "type": "function",
      "constant": true
    },
    {
      "inputs": [],
      "name": "renounceOwnership",
      "outputs": [],
      "stateMutability": "nonpayable",
      "type": "function"
    },
    {
      "inputs": [
        {
          "internalType": "address",
          "name": "from",
          "type": "address"
        },
        {
          "internalType": "address",
          "name": "to",
          "type": "address"
        },
        {
          "internalType": "uint256",
          "name": "tokenId",
          "type": "uint256"
        }
      ],
      "name": "safeTransferFrom",
      "outputs": [],
      "stateMutability": "nonpayable",
      "type": "function"
    },
    {
      "inputs": [
        {
          "internalType": "address",
          "name": "from",
          "type": "address"
        },
        {
          "internalType": "address",
          "name": "to",
          "type": "address"
        },
        {
          "internalType": "uint256",
          "name": "tokenId",
          "type": "uint256"
        },
        {
          "internalType": "bytes",
          "name": "_data",
          "type": "bytes"
        }
      ],
      "name": "safeTransferFrom",
      "outputs": [],
      "stateMutability": "nonpayable",
      "type": "function"
    },
    {
      "inputs": [
        {
          "internalType": "address",
          "name": "operator",
          "type": "address"
        },
        {
          "internalType": "bool",
          "name": "approved",
          "type": "bool"
        }
      ],
      "name": "setApprovalForAll",
      "outputs": [],
      "stateMutability": "nonpayable",
      "type": "function"
    },
    {
      "inputs": [
        {
          "internalType": "uint256",
          "name": "",
          "type": "uint256"
        }
      ],
      "name": "sneakerToOwner",
      "outputs": [
        {
          "internalType": "address",
          "name": "",
          "type": "address"
        }
      ],
      "stateMutability": "view",
      "type": "function",
      "constant": true
    },
    {
      "inputs": [
        {
          "internalType": "bytes4",
          "name": "interfaceId",
          "type": "bytes4"
        }
      ],
      "name": "supportsInterface",
      "outputs": [
        {
          "internalType": "bool",
          "name": "",
          "type": "bool"
        }
      ],
      "stateMutability": "view",
      "type": "function",
      "constant": true
    },
    {
      "inputs": [],
      "name": "symbol",
      "outputs": [
        {
          "internalType": "string",
          "name": "",
          "type": "string"
        }
      ],
      "stateMutability": "view",
      "type": "function",
      "constant": true
    },
    {
      "inputs": [
        {
          "internalType": "uint256",
          "name": "tokenId",
          "type": "uint256"
        }
      ],
      "name": "tokenURI",
      "outputs": [
        {
          "internalType": "string",
          "name": "",
          "type": "string"
        }
      ],
      "stateMutability": "view",
      "type": "function",
      "constant": true
    },
    {
      "inputs": [
        {
          "internalType": "address",
          "name": "from",
          "type": "address"
        },
        {
          "internalType": "address",
          "name": "to",
          "type": "address"
        },
        {
          "internalType": "uint256",
          "name": "tokenId",
          "type": "uint256"
        }
      ],
      "name": "transferFrom",
      "outputs": [],
      "stateMutability": "nonpayable",
      "type": "function"
    },
    {
      "inputs": [
        {
          "internalType": "address",
          "name": "newOwner",
          "type": "address"
        }
      ],
      "name": "transferOwnership",
      "outputs": [],
      "stateMutability": "nonpayable",
      "type": "function"
    }
  ],
  "bytecode": "0x608060405260006007553480156200001657600080fd5b506040518060400160405280601381526020017f537465706e2064756d6d7520736e65616b6572000000000000000000000000008152506040518060400160405280600381526020017f534453000000000000000000000000000000000000000000000000000000000081525081600090805190602001906200009b929190620001ab565b508060019080519060200190620000b4929190620001ab565b505050620000d7620000cb620000dd60201b60201c565b620000e560201b60201c565b620002bf565b600033905090565b6000600660009054906101000a900473ffffffffffffffffffffffffffffffffffffffff16905081600660006101000a81548173ffffffffffffffffffffffffffffffffffffffff021916908373ffffffffffffffffffffffffffffffffffffffff1602179055508173ffffffffffffffffffffffffffffffffffffffff168173ffffffffffffffffffffffffffffffffffffffff167f8be0079c531659141344cd1fd0a4f28419497f9722a3daafe3b4186f6b6457e060405160405180910390a35050565b828054620001b9906200028a565b90600052602060002090601f016020900481019282620001dd576000855562000229565b82601f10620001f857805160ff191683800117855562000229565b8280016001018555821562000229579182015b82811115620002285782518255916020019190600101906200020b565b5b5090506200023891906200023c565b5090565b5b80821115620002575760008160009055506001016200023d565b5090565b7f4e487b7100000000000000000000000000000000000000000000000000000000600052602260045260246000fd5b60006002820490506001821680620002a357607f821691505b602082108103620002b957620002b86200025b565b5b50919050565b61470380620002cf6000396000f3fe6080604052600436106101355760003560e01c80638fa6782a116100ab578063c02030411161006f578063c020304114610417578063c87b56dd14610454578063cb4e5d2d14610491578063cf86ea39146104ad578063e985e9c5146104ea578063f2fde38b1461052757610135565b80638fa6782a1461035357806395d89b411461037e5780639f8a704b146103a9578063a22cb465146103c5578063b88d4fde146103ee57610135565b806342842e0e116100fd57806342842e0e146102315780636352211e1461025a5780636ad354821461029757806370a08231146102d4578063715018a6146103115780638da5cb5b1461032857610135565b806301ffc9a71461013a57806306fdde0314610177578063081812fc146101a2578063095ea7b3146101df57806323b872dd14610208575b600080fd5b34801561014657600080fd5b50610161600480360381019061015c9190612e97565b610550565b60405161016e9190612edf565b60405180910390f35b34801561018357600080fd5b5061018c610632565b6040516101999190612f93565b60405180910390f35b3480156101ae57600080fd5b506101c960048036038101906101c49190612feb565b6106c4565b6040516101d69190613059565b60405180910390f35b3480156101eb57600080fd5b50610206600480360381019061020191906130a0565b610749565b005b34801561021457600080fd5b5061022f600480360381019061022a91906130e0565b610860565b005b34801561023d57600080fd5b50610258600480360381019061025391906130e0565b6108c0565b005b34801561026657600080fd5b50610281600480360381019061027c9190612feb565b6108e0565b60405161028e9190613059565b60405180910390f35b3480156102a357600080fd5b506102be60048036038101906102b99190612feb565b610991565b6040516102cb9190613059565b60405180910390f35b3480156102e057600080fd5b506102fb60048036038101906102f69190613133565b6109c4565b604051610308919061316f565b60405180910390f35b34801561031d57600080fd5b50610326610a7b565b005b34801561033457600080fd5b5061033d610b03565b60405161034a9190613059565b60405180910390f35b34801561035f57600080fd5b50610368610b2d565b60405161037591906134db565b60405180910390f35b34801561038a57600080fd5b50610393610e80565b6040516103a09190612f93565b60405180910390f35b6103c360048036038101906103be9190613547565b610f12565b005b3480156103d157600080fd5b506103ec60048036038101906103e791906135b3565b611064565b005b3480156103fa57600080fd5b5061041560048036038101906104109190613728565b61107a565b005b34801561042357600080fd5b5061043e60048036038101906104399190613133565b6110dc565b60405161044b91906134db565b60405180910390f35b34801561046057600080fd5b5061047b60048036038101906104769190612feb565b6113f2565b6040516104889190612f93565b60405180910390f35b6104ab60048036038101906104a69190613878565b611499565b005b3480156104b957600080fd5b506104d460048036038101906104cf9190612feb565b6115e0565b6040516104e19190613a28565b60405180910390f35b3480156104f657600080fd5b50610511600480360381019061050c9190613a4a565b611805565b60405161051e9190612edf565b60405180910390f35b34801561053357600080fd5b5061054e60048036038101906105499190613133565b611899565b005b60007f80ac58cd000000000000000000000000000000000000000000000000000000007bffffffffffffffffffffffffffffffffffffffffffffffffffffffff1916827bffffffffffffffffffffffffffffffffffffffffffffffffffffffff1916148061061b57507f5b5e139f000000000000000000000000000000000000000000000000000000007bffffffffffffffffffffffffffffffffffffffffffffffffffffffff1916827bffffffffffffffffffffffffffffffffffffffffffffffffffffffff1916145b8061062b575061062a82611990565b5b9050919050565b60606000805461064190613ab9565b80601f016020809104026020016040519081016040528092919081815260200182805461066d90613ab9565b80156106ba5780601f1061068f576101008083540402835291602001916106ba565b820191906000526020600020905b81548152906001019060200180831161069d57829003601f168201915b5050505050905090565b60006106cf826119fa565b61070e576040517f08c379a000000000000000000000000000000000000000000000000000000000815260040161070590613b5c565b60405180910390fd5b6004600083815260200190815260200160002060009054906101000a900473ffffffffffffffffffffffffffffffffffffffff169050919050565b6000610754826108e0565b90508073ffffffffffffffffffffffffffffffffffffffff168373ffffffffffffffffffffffffffffffffffffffff16036107c4576040517f08c379a00000000000000000000000000000000000000000000000000000000081526004016107bb90613bee565b60405180910390fd5b8073ffffffffffffffffffffffffffffffffffffffff166107e3611a66565b73ffffffffffffffffffffffffffffffffffffffff16148061081257506108118161080c611a66565b611805565b5b610851576040517f08c379a000000000000000000000000000000000000000000000000000000000815260040161084890613c80565b60405180910390fd5b61085b8383611a6e565b505050565b61087161086b611a66565b82611b27565b6108b0576040517f08c379a00000000000000000000000000000000000000000000000000000000081526004016108a790613d12565b60405180910390fd5b6108bb838383611c05565b505050565b6108db8383836040518060200160405280600081525061107a565b505050565b6000806002600084815260200190815260200160002060009054906101000a900473ffffffffffffffffffffffffffffffffffffffff169050600073ffffffffffffffffffffffffffffffffffffffff168173ffffffffffffffffffffffffffffffffffffffff1603610988576040517f08c379a000000000000000000000000000000000000000000000000000000000815260040161097f90613da4565b60405180910390fd5b80915050919050565b600a6020528060005260406000206000915054906101000a900473ffffffffffffffffffffffffffffffffffffffff1681565b60008073ffffffffffffffffffffffffffffffffffffffff168273ffffffffffffffffffffffffffffffffffffffff1603610a34576040517f08c379a0000000000000000000000000000000000000000000000000000000008152600401610a2b90613e36565b60405180910390fd5b600360008373ffffffffffffffffffffffffffffffffffffffff1673ffffffffffffffffffffffffffffffffffffffff168152602001908152602001600020549050919050565b610a83611a66565b73ffffffffffffffffffffffffffffffffffffffff16610aa1610b03565b73ffffffffffffffffffffffffffffffffffffffff1614610af7576040517f08c379a0000000000000000000000000000000000000000000000000000000008152600401610aee90613ea2565b60405180910390fd5b610b016000611e6b565b565b6000600660009054906101000a900473ffffffffffffffffffffffffffffffffffffffff16905090565b6060610b37611a66565b73ffffffffffffffffffffffffffffffffffffffff16610b55610b03565b73ffffffffffffffffffffffffffffffffffffffff1614610bab576040517f08c379a0000000000000000000000000000000000000000000000000000000008152600401610ba290613ea2565b60405180910390fd5b6008805480602002602001604051908101604052809291908181526020016000905b82821015610e77578382906000526020600020906005020160405180610260016040529081600082015481526020016001820160009054906101000a900460ff166003811115610c2057610c1f6131c5565b5b6003811115610c3257610c316131c5565b5b81526020016001820160019054906101000a900460ff166003811115610c5b57610c5a6131c5565b5b6003811115610c6d57610c6c6131c5565b5b81526020016001820160029054906101000a900460ff1660ff1660ff1681526020016001820160039054906101000a900460ff1660ff1660ff1681526020016001820160049054906101000a900460ff1660ff1660ff1681526020016001820160059054906101000a900460ff161515151581526020016001820160069054906101000a900463ffffffff1663ffffffff1663ffffffff16815260200160018201600a9054906101000a900463ffffffff1663ffffffff1663ffffffff16815260200160018201600e9054906101000a900463ffffffff1663ffffffff1663ffffffff1681526020016001820160129054906101000a900463ffffffff1663ffffffff1663ffffffff1681526020016001820160169054906101000a900463ffffffff1663ffffffff1663ffffffff16815260200160018201601a9054906101000a900463ffffffff1663ffffffff1663ffffffff1681526020016002820160009054906101000a900463ffffffff1663ffffffff1663ffffffff1681526020016002820160049054906101000a900463ffffffff1663ffffffff1663ffffffff1681526020016002820160089054906101000a900463ffffffff1663ffffffff1663ffffffff16815260200160028201600c9054906101000a900460ff161515151581526020016003820154815260200160048201548152505081526020019060010190610bcd565b50505050905090565b606060018054610e8f90613ab9565b80601f0160208091040260200160405190810160405280929190818152602001828054610ebb90613ab9565b8015610f085780601f10610edd57610100808354040283529160200191610f08565b820191906000526020600020905b815481529060010190602001808311610eeb57829003601f168201915b5050505050905090565b610f1a611a66565b73ffffffffffffffffffffffffffffffffffffffff16610f38610b03565b73ffffffffffffffffffffffffffffffffffffffff1614610f8e576040517f08c379a0000000000000000000000000000000000000000000000000000000008152600401610f8590613ea2565b60405180910390fd5b8160006003811115610fa357610fa26131c5565b5b816003811115610fb657610fb56131c5565b5b10158015610fe85750806003811115610fd257610fd16131c5565b5b600380811115610fe557610fe46131c5565b5b10155b610ff157600080fd5b8160006003811115611006576110056131c5565b5b816003811115611019576110186131c5565b5b1015801561104b5750806003811115611035576110346131c5565b5b600380811115611048576110476131c5565b5b10155b61105457600080fd5b61105e8484611f31565b50505050565b61107661106f611a66565b83836126b2565b5050565b61108b611085611a66565b83611b27565b6110ca576040517f08c379a00000000000000000000000000000000000000000000000000000000081526004016110c190613d12565b60405180910390fd5b6110d68484848461281e565b50505050565b6060600b60008373ffffffffffffffffffffffffffffffffffffffff1673ffffffffffffffffffffffffffffffffffffffff168152602001908152602001600020805480602002602001604051908101604052809291908181526020016000905b828210156113e7578382906000526020600020906005020160405180610260016040529081600082015481526020016001820160009054906101000a900460ff1660038111156111905761118f6131c5565b5b60038111156111a2576111a16131c5565b5b81526020016001820160019054906101000a900460ff1660038111156111cb576111ca6131c5565b5b60038111156111dd576111dc6131c5565b5b81526020016001820160029054906101000a900460ff1660ff1660ff1681526020016001820160039054906101000a900460ff1660ff1660ff1681526020016001820160049054906101000a900460ff1660ff1660ff1681526020016001820160059054906101000a900460ff161515151581526020016001820160069054906101000a900463ffffffff1663ffffffff1663ffffffff16815260200160018201600a9054906101000a900463ffffffff1663ffffffff1663ffffffff16815260200160018201600e9054906101000a900463ffffffff1663ffffffff1663ffffffff1681526020016001820160129054906101000a900463ffffffff1663ffffffff1663ffffffff1681526020016001820160169054906101000a900463ffffffff1663ffffffff1663ffffffff16815260200160018201601a9054906101000a900463ffffffff1663ffffffff1663ffffffff1681526020016002820160009054906101000a900463ffffffff1663ffffffff1663ffffffff1681526020016002820160049054906101000a900463ffffffff1663ffffffff1663ffffffff1681526020016002820160089054906101000a900463ffffffff1663ffffffff1663ffffffff16815260200160028201600c9054906101000a900460ff16151515158152602001600382015481526020016004820154815250508152602001906001019061113d565b505050509050919050565b60606113fd826119fa565b61143c576040517f08c379a000000000000000000000000000000000000000000000000000000000815260040161143390613f34565b60405180910390fd5b600061144661287a565b905060008151116114665760405180602001604052806000815250611491565b8061147084612891565b604051602001611481929190613f90565b6040516020818303038152906040525b915050919050565b60006114a5600c6129f1565b905060006040518060c0016040528083815260200188815260200187151581526020018681526020018581526020018460ff16815250905080600d6000848152602001908152602001600020600082015181600001556020820151816001019080519060200190611517929190612d4d565b5060408201518160020160006101000a81548160ff0219169083151502179055506060820151816003019080519060200190611554929190612d4d565b506080820151816004019080519060200190611571929190612d4d565b5060a08201518160050160006101000a81548160ff021916908360ff1602179055509050507f70b8515497d1bc3e1ae7202216a929ffa07f703541985ee77912b7d1390dfbdb826040516115c5919061316f565b60405180910390a16115d7600c6129ff565b50505050505050565b6115e8612dd3565b600d60008381526020019081526020016000206040518060c00160405290816000820154815260200160018201805461162090613ab9565b80601f016020809104026020016040519081016040528092919081815260200182805461164c90613ab9565b80156116995780601f1061166e57610100808354040283529160200191611699565b820191906000526020600020905b81548152906001019060200180831161167c57829003601f168201915b505050505081526020016002820160009054906101000a900460ff161515151581526020016003820180546116cd90613ab9565b80601f01602080910402602001604051908101604052809291908181526020018280546116f990613ab9565b80156117465780601f1061171b57610100808354040283529160200191611746565b820191906000526020600020905b81548152906001019060200180831161172957829003601f168201915b5050505050815260200160048201805461175f90613ab9565b80601f016020809104026020016040519081016040528092919081815260200182805461178b90613ab9565b80156117d85780601f106117ad576101008083540402835291602001916117d8565b820191906000526020600020905b8154815290600101906020018083116117bb57829003601f168201915b505050505081526020016005820160009054906101000a900460ff1660ff1660ff16815250509050919050565b6000600560008473ffffffffffffffffffffffffffffffffffffffff1673ffffffffffffffffffffffffffffffffffffffff16815260200190815260200160002060008373ffffffffffffffffffffffffffffffffffffffff1673ffffffffffffffffffffffffffffffffffffffff16815260200190815260200160002060009054906101000a900460ff16905092915050565b6118a1611a66565b73ffffffffffffffffffffffffffffffffffffffff166118bf610b03565b73ffffffffffffffffffffffffffffffffffffffff1614611915576040517f08c379a000000000000000000000000000000000000000000000000000000000815260040161190c90613ea2565b60405180910390fd5b600073ffffffffffffffffffffffffffffffffffffffff168173ffffffffffffffffffffffffffffffffffffffff1603611984576040517f08c379a000000000000000000000000000000000000000000000000000000000815260040161197b90614026565b60405180910390fd5b61198d81611e6b565b50565b60007f01ffc9a7000000000000000000000000000000000000000000000000000000007bffffffffffffffffffffffffffffffffffffffffffffffffffffffff1916827bffffffffffffffffffffffffffffffffffffffffffffffffffffffff1916149050919050565b60008073ffffffffffffffffffffffffffffffffffffffff166002600084815260200190815260200160002060009054906101000a900473ffffffffffffffffffffffffffffffffffffffff1673ffffffffffffffffffffffffffffffffffffffff1614159050919050565b600033905090565b816004600083815260200190815260200160002060006101000a81548173ffffffffffffffffffffffffffffffffffffffff021916908373ffffffffffffffffffffffffffffffffffffffff160217905550808273ffffffffffffffffffffffffffffffffffffffff16611ae1836108e0565b73ffffffffffffffffffffffffffffffffffffffff167f8c5be1e5ebec7d5bd14f71427d1e84f3dd0314c0f7b2291e5b200ac8c7c3b92560405160405180910390a45050565b6000611b32826119fa565b611b71576040517f08c379a0000000000000000000000000000000000000000000000000000000008152600401611b68906140b8565b60405180910390fd5b6000611b7c836108e0565b90508073ffffffffffffffffffffffffffffffffffffffff168473ffffffffffffffffffffffffffffffffffffffff161480611bbe5750611bbd8185611805565b5b80611bfc57508373ffffffffffffffffffffffffffffffffffffffff16611be4846106c4565b73ffffffffffffffffffffffffffffffffffffffff16145b91505092915050565b8273ffffffffffffffffffffffffffffffffffffffff16611c25826108e0565b73ffffffffffffffffffffffffffffffffffffffff1614611c7b576040517f08c379a0000000000000000000000000000000000000000000000000000000008152600401611c729061414a565b60405180910390fd5b600073ffffffffffffffffffffffffffffffffffffffff168273ffffffffffffffffffffffffffffffffffffffff1603611cea576040517f08c379a0000000000000000000000000000000000000000000000000000000008152600401611ce1906141dc565b60405180910390fd5b611cf5838383612a15565b611d00600082611a6e565b6001600360008573ffffffffffffffffffffffffffffffffffffffff1673ffffffffffffffffffffffffffffffffffffffff1681526020019081526020016000206000828254611d50919061422b565b925050819055506001600360008473ffffffffffffffffffffffffffffffffffffffff1673ffffffffffffffffffffffffffffffffffffffff1681526020019081526020016000206000828254611da7919061425f565b92505081905550816002600083815260200190815260200160002060006101000a81548173ffffffffffffffffffffffffffffffffffffffff021916908373ffffffffffffffffffffffffffffffffffffffff160217905550808273ffffffffffffffffffffffffffffffffffffffff168473ffffffffffffffffffffffffffffffffffffffff167fddf252ad1be2c89b69c2b068fc378daa952ba7f163c4a11628f55a4df523b3ef60405160405180910390a4611e66838383612a1a565b505050565b6000600660009054906101000a900473ffffffffffffffffffffffffffffffffffffffff16905081600660006101000a81548173ffffffffffffffffffffffffffffffffffffffff021916908373ffffffffffffffffffffffffffffffffffffffff1602179055508173ffffffffffffffffffffffffffffffffffffffff168173ffffffffffffffffffffffffffffffffffffffff167f8be0079c531659141344cd1fd0a4f28419497f9722a3daafe3b4186f6b6457e060405160405180910390a35050565b6000611f3d60096129f1565b90506000611f4a83612a1f565b90506000611f5784612a1f565b90506000611f6485612a1f565b90506000611f7186612a1f565b90506000604051806102600160405280878152602001896003811115611f9a57611f996131c5565b5b8152602001886003811115611fb257611fb16131c5565b5b8152602001600060ff168152602001606460ff168152602001600060ff1681526020016001151581526020018663ffffffff1681526020018563ffffffff1681526020018463ffffffff1681526020018363ffffffff1681526020018663ffffffff1681526020018563ffffffff1681526020018463ffffffff1681526020018363ffffffff168152602001600063ffffffff168152602001600015158152602001600081526020016000815250905060088190806001815401808255809150506001900390600052602060002090600502016000909190919091506000820151816000015560208201518160010160006101000a81548160ff021916908360038111156120c3576120c26131c5565b5b021790555060408201518160010160016101000a81548160ff021916908360038111156120f3576120f26131c5565b5b021790555060608201518160010160026101000a81548160ff021916908360ff16021790555060808201518160010160036101000a81548160ff021916908360ff16021790555060a08201518160010160046101000a81548160ff021916908360ff16021790555060c08201518160010160056101000a81548160ff02191690831515021790555060e08201518160010160066101000a81548163ffffffff021916908363ffffffff16021790555061010082015181600101600a6101000a81548163ffffffff021916908363ffffffff16021790555061012082015181600101600e6101000a81548163ffffffff021916908363ffffffff1602179055506101408201518160010160126101000a81548163ffffffff021916908363ffffffff1602179055506101608201518160010160166101000a81548163ffffffff021916908363ffffffff16021790555061018082015181600101601a6101000a81548163ffffffff021916908363ffffffff1602179055506101a08201518160020160006101000a81548163ffffffff021916908363ffffffff1602179055506101c08201518160020160046101000a81548163ffffffff021916908363ffffffff1602179055506101e08201518160020160086101000a81548163ffffffff021916908363ffffffff16021790555061020082015181600201600c6101000a81548160ff021916908315150217905550610220820151816003015561024082015181600401555050600b60003373ffffffffffffffffffffffffffffffffffffffff1673ffffffffffffffffffffffffffffffffffffffff1681526020019081526020016000208190806001815401808255809150506001900390600052602060002090600502016000909190919091506000820151816000015560208201518160010160006101000a81548160ff021916908360038111156123b9576123b86131c5565b5b021790555060408201518160010160016101000a81548160ff021916908360038111156123e9576123e86131c5565b5b021790555060608201518160010160026101000a81548160ff021916908360ff16021790555060808201518160010160036101000a81548160ff021916908360ff16021790555060a08201518160010160046101000a81548160ff021916908360ff16021790555060c08201518160010160056101000a81548160ff02191690831515021790555060e08201518160010160066101000a81548163ffffffff021916908363ffffffff16021790555061010082015181600101600a6101000a81548163ffffffff021916908363ffffffff16021790555061012082015181600101600e6101000a81548163ffffffff021916908363ffffffff1602179055506101408201518160010160126101000a81548163ffffffff021916908363ffffffff1602179055506101608201518160010160166101000a81548163ffffffff021916908363ffffffff16021790555061018082015181600101601a6101000a81548163ffffffff021916908363ffffffff1602179055506101a08201518160020160006101000a81548163ffffffff021916908363ffffffff1602179055506101c08201518160020160046101000a81548163ffffffff021916908363ffffffff1602179055506101e08201518160020160086101000a81548163ffffffff021916908363ffffffff16021790555061020082015181600201600c6101000a81548160ff02191690831515021790555061022082015181600301556102408201518160040155505033600a600088815260200190815260200160002060006101000a81548173ffffffffffffffffffffffffffffffffffffffff021916908373ffffffffffffffffffffffffffffffffffffffff1602179055507f6a8c59da79afe08e9e21105b96ace9e15b03412ae0b524de35e6aaf93985f3a4868989604051612696939291906142d3565b60405180910390a16126a860096129ff565b5050505050505050565b8173ffffffffffffffffffffffffffffffffffffffff168373ffffffffffffffffffffffffffffffffffffffff1603612720576040517f08c379a000000000000000000000000000000000000000000000000000000000815260040161271790614356565b60405180910390fd5b80600560008573ffffffffffffffffffffffffffffffffffffffff1673ffffffffffffffffffffffffffffffffffffffff16815260200190815260200160002060008473ffffffffffffffffffffffffffffffffffffffff1673ffffffffffffffffffffffffffffffffffffffff16815260200190815260200160002060006101000a81548160ff0219169083151502179055508173ffffffffffffffffffffffffffffffffffffffff168373ffffffffffffffffffffffffffffffffffffffff167f17307eab39ab6107e8899845ad3d59bd9653f200f220920489ca2b5937696c31836040516128119190612edf565b60405180910390a3505050565b612829848484611c05565b61283584848484612b25565b612874576040517f08c379a000000000000000000000000000000000000000000000000000000000815260040161286b906143e8565b60405180910390fd5b50505050565b606060405180602001604052806000815250905090565b6060600082036128d8576040518060400160405280600181526020017f300000000000000000000000000000000000000000000000000000000000000081525090506129ec565b600082905060005b6000821461290a5780806128f390614408565b915050600a82612903919061447f565b91506128e0565b60008167ffffffffffffffff811115612926576129256135fd565b5b6040519080825280601f01601f1916602001820160405280156129585781602001600182028036833780820191505090505b5090505b600085146129e557600182612971919061422b565b9150600a8561298091906144b0565b603061298c919061425f565b60f81b8183815181106129a2576129a16144e1565b5b60200101907effffffffffffffffffffffffffffffffffffffffffffffffffffffffffffff1916908160001a905350600a856129de919061447f565b945061295c565b8093505050505b919050565b600081600001549050919050565b6001816000016000828254019250508190555050565b505050565b505050565b6000806003811115612a3457612a336131c5565b5b826003811115612a4757612a466131c5565b5b03612a5f57612a58600a6001612cac565b9050612b20565b60016003811115612a7357612a726131c5565b5b826003811115612a8657612a856131c5565b5b03612a9e57612a9760126008612cac565b9050612b20565b60026003811115612ab257612ab16131c5565b5b826003811115612ac557612ac46131c5565b5b03612add57612ad66023600f612cac565b9050612b20565b600380811115612af057612aef6131c5565b5b826003811115612b0357612b026131c5565b5b03612b1b57612b14603f601c612cac565b9050612b20565b600090505b919050565b6000612b468473ffffffffffffffffffffffffffffffffffffffff16612d2a565b15612c9f578373ffffffffffffffffffffffffffffffffffffffff1663150b7a02612b6f611a66565b8786866040518563ffffffff1660e01b8152600401612b919493929190614565565b6020604051808303816000875af1925050508015612bcd57506040513d601f19601f82011682018060405250810190612bca91906145c6565b60015b612c4f573d8060008114612bfd576040519150601f19603f3d011682016040523d82523d6000602084013e612c02565b606091505b506000815103612c47576040517f08c379a0000000000000000000000000000000000000000000000000000000008152600401612c3e906143e8565b60405180910390fd5b805181602001fd5b63150b7a0260e01b7bffffffffffffffffffffffffffffffffffffffffffffffffffffffff1916817bffffffffffffffffffffffffffffffffffffffffffffffffffffffff191614915050612ca4565b600190505b949350505050565b6000804233600754604051602001612cc69392919061465c565b6040516020818303038152906040528051906020012060001c905060076000815480929190612cf490614408565b91905055508260ff168385612d099190614699565b60ff1682612d1791906144b0565b612d21919061425f565b91505092915050565b6000808273ffffffffffffffffffffffffffffffffffffffff163b119050919050565b828054612d5990613ab9565b90600052602060002090601f016020900481019282612d7b5760008555612dc2565b82601f10612d9457805160ff1916838001178555612dc2565b82800160010185558215612dc2579182015b82811115612dc1578251825591602001919060010190612da6565b5b509050612dcf9190612e0e565b5090565b6040518060c0016040528060008152602001606081526020016000151581526020016060815260200160608152602001600060ff1681525090565b5b80821115612e27576000816000905550600101612e0f565b5090565b6000604051905090565b600080fd5b600080fd5b60007fffffffff0000000000000000000000000000000000000000000000000000000082169050919050565b612e7481612e3f565b8114612e7f57600080fd5b50565b600081359050612e9181612e6b565b92915050565b600060208284031215612ead57612eac612e35565b5b6000612ebb84828501612e82565b91505092915050565b60008115159050919050565b612ed981612ec4565b82525050565b6000602082019050612ef46000830184612ed0565b92915050565b600081519050919050565b600082825260208201905092915050565b60005b83811015612f34578082015181840152602081019050612f19565b83811115612f43576000848401525b50505050565b6000601f19601f8301169050919050565b6000612f6582612efa565b612f6f8185612f05565b9350612f7f818560208601612f16565b612f8881612f49565b840191505092915050565b60006020820190508181036000830152612fad8184612f5a565b905092915050565b6000819050919050565b612fc881612fb5565b8114612fd357600080fd5b50565b600081359050612fe581612fbf565b92915050565b60006020828403121561300157613000612e35565b5b600061300f84828501612fd6565b91505092915050565b600073ffffffffffffffffffffffffffffffffffffffff82169050919050565b600061304382613018565b9050919050565b61305381613038565b82525050565b600060208201905061306e600083018461304a565b92915050565b61307d81613038565b811461308857600080fd5b50565b60008135905061309a81613074565b92915050565b600080604083850312156130b7576130b6612e35565b5b60006130c58582860161308b565b92505060206130d685828601612fd6565b9150509250929050565b6000806000606084860312156130f9576130f8612e35565b5b60006131078682870161308b565b93505060206131188682870161308b565b925050604061312986828701612fd6565b9150509250925092565b60006020828403121561314957613148612e35565b5b60006131578482850161308b565b91505092915050565b61316981612fb5565b82525050565b60006020820190506131846000830184613160565b92915050565b600081519050919050565b600082825260208201905092915050565b6000819050602082019050919050565b6131bf81612fb5565b82525050565b7f4e487b7100000000000000000000000000000000000000000000000000000000600052602160045260246000fd5b60048110613205576132046131c5565b5b50565b6000819050613216826131f4565b919050565b600061322682613208565b9050919050565b6132368161321b565b82525050565b6004811061324d5761324c6131c5565b5b50565b600081905061325e8261323c565b919050565b600061326e82613250565b9050919050565b61327e81613263565b82525050565b600060ff82169050919050565b61329a81613284565b82525050565b6132a981612ec4565b82525050565b600063ffffffff82169050919050565b6132c8816132af565b82525050565b610260820160008201516132e560008501826131b6565b5060208201516132f8602085018261322d565b50604082015161330b6040850182613275565b50606082015161331e6060850182613291565b5060808201516133316080850182613291565b5060a082015161334460a0850182613291565b5060c082015161335760c08501826132a0565b5060e082015161336a60e08501826132bf565b5061010082015161337f6101008501826132bf565b506101208201516133946101208501826132bf565b506101408201516133a96101408501826132bf565b506101608201516133be6101608501826132bf565b506101808201516133d36101808501826132bf565b506101a08201516133e86101a08501826132bf565b506101c08201516133fd6101c08501826132bf565b506101e08201516134126101e08501826132bf565b506102008201516134276102008501826132a0565b5061022082015161343c6102208501826131b6565b506102408201516134516102408501826131b6565b50505050565b600061346383836132ce565b6102608301905092915050565b6000602082019050919050565b60006134888261318a565b6134928185613195565b935061349d836131a6565b8060005b838110156134ce5781516134b58882613457565b97506134c083613470565b9250506001810190506134a1565b5085935050505092915050565b600060208201905081810360008301526134f5818461347d565b905092915050565b6004811061350a57600080fd5b50565b60008135905061351c816134fd565b92915050565b6004811061352f57600080fd5b50565b60008135905061354181613522565b92915050565b6000806040838503121561355e5761355d612e35565b5b600061356c8582860161350d565b925050602061357d85828601613532565b9150509250929050565b61359081612ec4565b811461359b57600080fd5b50565b6000813590506135ad81613587565b92915050565b600080604083850312156135ca576135c9612e35565b5b60006135d88582860161308b565b92505060206135e98582860161359e565b9150509250929050565b600080fd5b600080fd5b7f4e487b7100000000000000000000000000000000000000000000000000000000600052604160045260246000fd5b61363582612f49565b810181811067ffffffffffffffff82111715613654576136536135fd565b5b80604052505050565b6000613667612e2b565b9050613673828261362c565b919050565b600067ffffffffffffffff821115613693576136926135fd565b5b61369c82612f49565b9050602081019050919050565b82818337600083830152505050565b60006136cb6136c684613678565b61365d565b9050828152602081018484840111156136e7576136e66135f8565b5b6136f28482856136a9565b509392505050565b600082601f83011261370f5761370e6135f3565b5b813561371f8482602086016136b8565b91505092915050565b6000806000806080858703121561374257613741612e35565b5b60006137508782880161308b565b94505060206137618782880161308b565b935050604061377287828801612fd6565b925050606085013567ffffffffffffffff81111561379357613792612e3a565b5b61379f878288016136fa565b91505092959194509250565b600067ffffffffffffffff8211156137c6576137c56135fd565b5b6137cf82612f49565b9050602081019050919050565b60006137ef6137ea846137ab565b61365d565b90508281526020810184848401111561380b5761380a6135f8565b5b6138168482856136a9565b509392505050565b600082601f830112613833576138326135f3565b5b81356138438482602086016137dc565b91505092915050565b61385581613284565b811461386057600080fd5b50565b6000813590506138728161384c565b92915050565b600080600080600060a0868803121561389457613893612e35565b5b600086013567ffffffffffffffff8111156138b2576138b1612e3a565b5b6138be8882890161381e565b95505060206138cf8882890161359e565b945050604086013567ffffffffffffffff8111156138f0576138ef612e3a565b5b6138fc8882890161381e565b935050606086013567ffffffffffffffff81111561391d5761391c612e3a565b5b6139298882890161381e565b925050608061393a88828901613863565b9150509295509295909350565b600082825260208201905092915050565b600061396382612efa565b61396d8185613947565b935061397d818560208601612f16565b61398681612f49565b840191505092915050565b600060c0830160008301516139a960008601826131b6565b50602083015184820360208601526139c18282613958565b91505060408301516139d660408601826132a0565b50606083015184820360608601526139ee8282613958565b91505060808301518482036080860152613a088282613958565b91505060a0830151613a1d60a0860182613291565b508091505092915050565b60006020820190508181036000830152613a428184613991565b905092915050565b60008060408385031215613a6157613a60612e35565b5b6000613a6f8582860161308b565b9250506020613a808582860161308b565b9150509250929050565b7f4e487b7100000000000000000000000000000000000000000000000000000000600052602260045260246000fd5b60006002820490506001821680613ad157607f821691505b602082108103613ae457613ae3613a8a565b5b50919050565b7f4552433732313a20617070726f76656420717565727920666f72206e6f6e657860008201527f697374656e7420746f6b656e0000000000000000000000000000000000000000602082015250565b6000613b46602c83612f05565b9150613b5182613aea565b604082019050919050565b60006020820190508181036000830152613b7581613b39565b9050919050565b7f4552433732313a20617070726f76616c20746f2063757272656e74206f776e6560008201527f7200000000000000000000000000000000000000000000000000000000000000602082015250565b6000613bd8602183612f05565b9150613be382613b7c565b604082019050919050565b60006020820190508181036000830152613c0781613bcb565b9050919050565b7f4552433732313a20617070726f76652063616c6c6572206973206e6f74206f7760008201527f6e6572206e6f7220617070726f76656420666f7220616c6c0000000000000000602082015250565b6000613c6a603883612f05565b9150613c7582613c0e565b604082019050919050565b60006020820190508181036000830152613c9981613c5d565b9050919050565b7f4552433732313a207472616e736665722063616c6c6572206973206e6f74206f60008201527f776e6572206e6f7220617070726f766564000000000000000000000000000000602082015250565b6000613cfc603183612f05565b9150613d0782613ca0565b604082019050919050565b60006020820190508181036000830152613d2b81613cef565b9050919050565b7f4552433732313a206f776e657220717565727920666f72206e6f6e657869737460008201527f656e7420746f6b656e0000000000000000000000000000000000000000000000602082015250565b6000613d8e602983612f05565b9150613d9982613d32565b604082019050919050565b60006020820190508181036000830152613dbd81613d81565b9050919050565b7f4552433732313a2062616c616e636520717565727920666f7220746865207a6560008201527f726f206164647265737300000000000000000000000000000000000000000000602082015250565b6000613e20602a83612f05565b9150613e2b82613dc4565b604082019050919050565b60006020820190508181036000830152613e4f81613e13565b9050919050565b7f4f776e61626c653a2063616c6c6572206973206e6f7420746865206f776e6572600082015250565b6000613e8c602083612f05565b9150613e9782613e56565b602082019050919050565b60006020820190508181036000830152613ebb81613e7f565b9050919050565b7f4552433732314d657461646174613a2055524920717565727920666f72206e6f60008201527f6e6578697374656e7420746f6b656e0000000000000000000000000000000000602082015250565b6000613f1e602f83612f05565b9150613f2982613ec2565b604082019050919050565b60006020820190508181036000830152613f4d81613f11565b9050919050565b600081905092915050565b6000613f6a82612efa565b613f748185613f54565b9350613f84818560208601612f16565b80840191505092915050565b6000613f9c8285613f5f565b9150613fa88284613f5f565b91508190509392505050565b7f4f776e61626c653a206e6577206f776e657220697320746865207a65726f206160008201527f6464726573730000000000000000000000000000000000000000000000000000602082015250565b6000614010602683612f05565b915061401b82613fb4565b604082019050919050565b6000602082019050818103600083015261403f81614003565b9050919050565b7f4552433732313a206f70657261746f7220717565727920666f72206e6f6e657860008201527f697374656e7420746f6b656e0000000000000000000000000000000000000000602082015250565b60006140a2602c83612f05565b91506140ad82614046565b604082019050919050565b600060208201905081810360008301526140d181614095565b9050919050565b7f4552433732313a207472616e736665722066726f6d20696e636f72726563742060008201527f6f776e6572000000000000000000000000000000000000000000000000000000602082015250565b6000614134602583612f05565b915061413f826140d8565b604082019050919050565b6000602082019050818103600083015261416381614127565b9050919050565b7f4552433732313a207472616e7366657220746f20746865207a65726f2061646460008201527f7265737300000000000000000000000000000000000000000000000000000000602082015250565b60006141c6602483612f05565b91506141d18261416a565b604082019050919050565b600060208201905081810360008301526141f5816141b9565b9050919050565b7f4e487b7100000000000000000000000000000000000000000000000000000000600052601160045260246000fd5b600061423682612fb5565b915061424183612fb5565b925082821015614254576142536141fc565b5b828203905092915050565b600061426a82612fb5565b915061427583612fb5565b9250827fffffffffffffffffffffffffffffffffffffffffffffffffffffffffffffffff038211156142aa576142a96141fc565b5b828201905092915050565b6142be8161321b565b82525050565b6142cd81613263565b82525050565b60006060820190506142e86000830186613160565b6142f560208301856142b5565b61430260408301846142c4565b949350505050565b7f4552433732313a20617070726f766520746f2063616c6c657200000000000000600082015250565b6000614340601983612f05565b915061434b8261430a565b602082019050919050565b6000602082019050818103600083015261436f81614333565b9050919050565b7f4552433732313a207472616e7366657220746f206e6f6e20455243373231526560008201527f63656976657220696d706c656d656e7465720000000000000000000000000000602082015250565b60006143d2603283612f05565b91506143dd82614376565b604082019050919050565b60006020820190508181036000830152614401816143c5565b9050919050565b600061441382612fb5565b91507fffffffffffffffffffffffffffffffffffffffffffffffffffffffffffffffff8203614445576144446141fc565b5b600182019050919050565b7f4e487b7100000000000000000000000000000000000000000000000000000000600052601260045260246000fd5b600061448a82612fb5565b915061449583612fb5565b9250826144a5576144a4614450565b5b828204905092915050565b60006144bb82612fb5565b91506144c683612fb5565b9250826144d6576144d5614450565b5b828206905092915050565b7f4e487b7100000000000000000000000000000000000000000000000000000000600052603260045260246000fd5b600081519050919050565b600082825260208201905092915050565b600061453782614510565b614541818561451b565b9350614551818560208601612f16565b61455a81612f49565b840191505092915050565b600060808201905061457a600083018761304a565b614587602083018661304a565b6145946040830185613160565b81810360608301526145a6818461452c565b905095945050505050565b6000815190506145c081612e6b565b92915050565b6000602082840312156145dc576145db612e35565b5b60006145ea848285016145b1565b91505092915050565b6000819050919050565b61460e61460982612fb5565b6145f3565b82525050565b60008160601b9050919050565b600061462c82614614565b9050919050565b600061463e82614621565b9050919050565b61465661465182613038565b614633565b82525050565b600061466882866145fd565b6020820191506146788285614645565b60148201915061468882846145fd565b602082019150819050949350505050565b60006146a482613284565b91506146af83613284565b9250828210156146c2576146c16141fc565b5b82820390509291505056fea26469706673582212206e3b2fa1f40cc2a2128d6204b414e4f0c4cb22cceae63ca0b6b657825e3be83364736f6c634300080e0033",
  "immutableReferences": {},
  "source": "// SPDX-License-Identifier: UNLICENSED\npragma solidity ^0.8.14;\n\nimport { SneakerFactory } from './SneakerFactory.sol';\nimport { UserFactory } from './UserFactory.sol';\n\ncontract StepnDummy is \n  SneakerFactory,\n  UserFactory\n{}",
  "sourcePath": "/Users/takaishouhei/Desktop/stepn_dummy_contract/contracts/StepnDummy.sol",
  "compiler": {
    "name": "solc",
    "version": "0.8.14+commit.80d49f37.Emscripten.clang"
  },
  "schemaVersion": "3.4.7",
  "updatedAt": "2022-06-14T15:07:08.537Z",
  "networkType": "ethereum",
  "devdoc": {
    "kind": "dev",
    "methods": {
      "approve(address,uint256)": {
        "details": "See {IERC721-approve}."
      },
      "balanceOf(address)": {
        "details": "See {IERC721-balanceOf}."
      },
      "getApproved(uint256)": {
        "details": "See {IERC721-getApproved}."
      },
      "isApprovedForAll(address,address)": {
        "details": "See {IERC721-isApprovedForAll}."
      },
      "name()": {
        "details": "See {IERC721Metadata-name}."
      },
      "owner()": {
        "details": "Returns the address of the current owner."
      },
      "ownerOf(uint256)": {
        "details": "See {IERC721-ownerOf}."
      },
      "renounceOwnership()": {
        "details": "Leaves the contract without owner. It will not be possible to call `onlyOwner` functions anymore. Can only be called by the current owner. NOTE: Renouncing ownership will leave the contract without an owner, thereby removing any functionality that is only available to the owner."
      },
      "safeTransferFrom(address,address,uint256)": {
        "details": "See {IERC721-safeTransferFrom}."
      },
      "safeTransferFrom(address,address,uint256,bytes)": {
        "details": "See {IERC721-safeTransferFrom}."
      },
      "setApprovalForAll(address,bool)": {
        "details": "See {IERC721-setApprovalForAll}."
      },
      "supportsInterface(bytes4)": {
        "details": "See {IERC165-supportsInterface}."
      },
      "symbol()": {
        "details": "See {IERC721Metadata-symbol}."
      },
      "tokenURI(uint256)": {
        "details": "See {IERC721Metadata-tokenURI}."
      },
      "transferFrom(address,address,uint256)": {
        "details": "See {IERC721-transferFrom}."
      },
      "transferOwnership(address)": {
        "details": "Transfers ownership of the contract to a new account (`newOwner`). Can only be called by the current owner."
      }
    },
    "version": 1
  },
  "userdoc": {
    "kind": "user",
    "methods": {},
    "version": 1
  }
}